{
  "_format": "hh-sol-artifact-1",
  "contractName": "ModRegistry",
  "sourceName": "contracts/ModRegistry.sol",
  "abi": [
    {
      "anonymous": false,
      "inputs": [
        {
          "indexed": true,
          "internalType": "uint256",
          "name": "modId",
          "type": "uint256"
        },
        {
          "indexed": false,
          "internalType": "string",
          "name": "name",
          "type": "string"
        },
        {
          "indexed": false,
          "internalType": "string",
          "name": "version",
          "type": "string"
        },
        {
          "indexed": false,
          "internalType": "string",
          "name": "ipfsCID",
          "type": "string"
        },
        {
          "indexed": true,
          "internalType": "address",
          "name": "owner",
          "type": "address"
        }
      ],
      "name": "ModRegistered",
      "type": "event"
    },
    {
      "inputs": [
        {
          "internalType": "uint256",
          "name": "modId",
          "type": "uint256"
        }
      ],
      "name": "getMod",
      "outputs": [
        {
          "internalType": "string",
          "name": "",
          "type": "string"
        },
        {
          "internalType": "string",
          "name": "",
          "type": "string"
        },
        {
          "internalType": "string",
          "name": "",
          "type": "string"
        },
        {
          "internalType": "address",
          "name": "",
          "type": "address"
        }
      ],
      "stateMutability": "view",
      "type": "function"
    },
    {
      "inputs": [
        {
          "internalType": "string",
          "name": "ipfsCID",
          "type": "string"
        }
      ],
      "name": "getModByCID",
      "outputs": [
        {
          "internalType": "string",
          "name": "name",
          "type": "string"
        },
        {
          "internalType": "string",
          "name": "version",
          "type": "string"
        },
        {
          "internalType": "address",
          "name": "owner",
          "type": "address"
        },
        {
          "internalType": "uint256",
          "name": "modId",
          "type": "uint256"
        }
      ],
      "stateMutability": "view",
      "type": "function"
    },
    {
      "inputs": [],
      "name": "getModCount",
      "outputs": [
        {
          "internalType": "uint256",
          "name": "",
          "type": "uint256"
        }
      ],
      "stateMutability": "view",
      "type": "function"
    },
    {
      "inputs": [
        {
          "internalType": "uint256",
          "name": "",
          "type": "uint256"
        }
      ],
      "name": "mods",
      "outputs": [
        {
          "internalType": "string",
          "name": "name",
          "type": "string"
        },
        {
          "internalType": "string",
          "name": "version",
          "type": "string"
        },
        {
          "internalType": "string",
          "name": "ipfsCID",
          "type": "string"
        },
        {
          "internalType": "address",
          "name": "owner",
          "type": "address"
        }
      ],
      "stateMutability": "view",
      "type": "function"
    },
    {
      "inputs": [
        {
          "internalType": "string",
          "name": "name",
          "type": "string"
        },
        {
          "internalType": "string",
          "name": "version",
          "type": "string"
        },
        {
          "internalType": "string",
          "name": "ipfsCID",
          "type": "string"
        }
      ],
      "name": "registerMod",
      "outputs": [],
      "stateMutability": "nonpayable",
      "type": "function"
    },
    {
      "inputs": [
        {
          "internalType": "string",
          "name": "",
          "type": "string"
        }
      ],
      "name": "registeredCIDs",
      "outputs": [
        {
          "internalType": "bool",
          "name": "",
          "type": "bool"
        }
      ],
      "stateMutability": "view",
      "type": "function"
    }
  ],
  "bytecode": "0x6080604052348015600f57600080fd5b506117208061001f6000396000f3fe608060405234801561001057600080fd5b50600436106100625760003560e01c80630517f91b1461006757806355c2fad31461009a578063acfd4115146100b8578063c00af42c146100eb578063c8325a671461011e578063edd5aba11461013a575b600080fd5b610081600480360381019061007c9190610b8c565b61016a565b6040516100919493929190610c8a565b60405180910390f35b6100a26103c1565b6040516100af9190610cf3565b60405180910390f35b6100d260048036038101906100cd9190610d73565b6103cd565b6040516100e29493929190610dc0565b60405180910390f35b61010560048036038101906101009190610b8c565b610643565b6040516101159493929190610c8a565b60405180910390f35b61013860048036038101906101339190610e13565b61083b565b005b610154600480360381019061014f9190610ff7565b610b0c565b604051610161919061105b565b60405180910390f35b60608060606000808054905085106101b7576040517f08c379a00000000000000000000000000000000000000000000000000000000081526004016101ae906110c2565b60405180910390fd5b60008086815481106101cc576101cb6110e2565b5b906000526020600020906004020190508060000181600101826002018360030160009054906101000a900473ffffffffffffffffffffffffffffffffffffffff1683805461021990611140565b80601f016020809104026020016040519081016040528092919081815260200182805461024590611140565b80156102925780601f1061026757610100808354040283529160200191610292565b820191906000526020600020905b81548152906001019060200180831161027557829003601f168201915b505050505093508280546102a590611140565b80601f01602080910402602001604051908101604052809291908181526020018280546102d190611140565b801561031e5780601f106102f35761010080835404028352916020019161031e565b820191906000526020600020905b81548152906001019060200180831161030157829003601f168201915b5050505050925081805461033190611140565b80601f016020809104026020016040519081016040528092919081815260200182805461035d90611140565b80156103aa5780601f1061037f576101008083540402835291602001916103aa565b820191906000526020600020905b81548152906001019060200180831161038d57829003601f168201915b505050505091509450945094509450509193509193565b60008080549050905090565b60608060008060005b6000805490508110156105fe5786866040516103f39291906111a1565b60405180910390206000828154811061040f5761040e6110e2565b5b906000526020600020906004020160020160405161042d9190611252565b6040518091039020036105f1576000818154811061044e5761044d6110e2565b5b906000526020600020906004020160000160008281548110610473576104726110e2565b5b906000526020600020906004020160010160008381548110610498576104976110e2565b5b906000526020600020906004020160030160009054906101000a900473ffffffffffffffffffffffffffffffffffffffff16838380546104d790611140565b80601f016020809104026020016040519081016040528092919081815260200182805461050390611140565b80156105505780601f1061052557610100808354040283529160200191610550565b820191906000526020600020905b81548152906001019060200180831161053357829003601f168201915b5050505050935082805461056390611140565b80601f016020809104026020016040519081016040528092919081815260200182805461058f90611140565b80156105dc5780601f106105b1576101008083540402835291602001916105dc565b820191906000526020600020905b8154815290600101906020018083116105bf57829003601f168201915b5050505050925094509450945094505061063a565b80806001019150506103d6565b506040517f08c379a0000000000000000000000000000000000000000000000000000000008152600401610631906112b5565b60405180910390fd5b92959194509250565b6000818154811061065357600080fd5b906000526020600020906004020160009150905080600001805461067690611140565b80601f01602080910402602001604051908101604052809291908181526020018280546106a290611140565b80156106ef5780601f106106c4576101008083540402835291602001916106ef565b820191906000526020600020905b8154815290600101906020018083116106d257829003601f168201915b50505050509080600101805461070490611140565b80601f016020809104026020016040519081016040528092919081815260200182805461073090611140565b801561077d5780601f106107525761010080835404028352916020019161077d565b820191906000526020600020905b81548152906001019060200180831161076057829003601f168201915b50505050509080600201805461079290611140565b80601f01602080910402602001604051908101604052809291908181526020018280546107be90611140565b801561080b5780601f106107e05761010080835404028352916020019161080b565b820191906000526020600020905b8154815290600101906020018083116107ee57829003601f168201915b5050505050908060030160009054906101000a900473ffffffffffffffffffffffffffffffffffffffff16905084565b6001828260405161084d929190611305565b908152602001604051809103902060009054906101000a900460ff16156108a9576040517f08c379a00000000000000000000000000000000000000000000000000000000081526004016108a09061136a565b60405180910390fd5b6000604051806080016040528088888080601f016020809104026020016040519081016040528093929190818152602001838380828437600081840152601f19601f82011690508083019250505050505050815260200186868080601f016020809104026020016040519081016040528093929190818152602001838380828437600081840152601f19601f82011690508083019250505050505050815260200184848080601f016020809104026020016040519081016040528093929190818152602001838380828437600081840152601f19601f8201169050808301925050505050505081526020013373ffffffffffffffffffffffffffffffffffffffff16815250908060018154018082558091505060019003906000526020600020906004020160009091909190915060008201518160000190816109ec9190611536565b506020820151816001019081610a029190611536565b506040820151816002019081610a189190611536565b5060608201518160030160006101000a81548173ffffffffffffffffffffffffffffffffffffffff021916908373ffffffffffffffffffffffffffffffffffffffff16021790555050506001808383604051610a75929190611305565b908152602001604051809103902060006101000a81548160ff0219169083151502179055503373ffffffffffffffffffffffffffffffffffffffff166001600080549050610ac39190611637565b7f6d9fb0fbfc686b9cd0d8750b338d17952e8e48df7f82fb411e2e5b10f1eef1a0888888888888604051610afc96959493929190611698565b60405180910390a3505050505050565b6001818051602081018201805184825260208301602085012081835280955050505050506000915054906101000a900460ff1681565b6000604051905090565b600080fd5b600080fd5b6000819050919050565b610b6981610b56565b8114610b7457600080fd5b50565b600081359050610b8681610b60565b92915050565b600060208284031215610ba257610ba1610b4c565b5b6000610bb084828501610b77565b91505092915050565b600081519050919050565b600082825260208201905092915050565b60005b83811015610bf3578082015181840152602081019050610bd8565b60008484015250505050565b6000601f19601f8301169050919050565b6000610c1b82610bb9565b610c258185610bc4565b9350610c35818560208601610bd5565b610c3e81610bff565b840191505092915050565b600073ffffffffffffffffffffffffffffffffffffffff82169050919050565b6000610c7482610c49565b9050919050565b610c8481610c69565b82525050565b60006080820190508181036000830152610ca48187610c10565b90508181036020830152610cb88186610c10565b90508181036040830152610ccc8185610c10565b9050610cdb6060830184610c7b565b95945050505050565b610ced81610b56565b82525050565b6000602082019050610d086000830184610ce4565b92915050565b600080fd5b600080fd5b600080fd5b60008083601f840112610d3357610d32610d0e565b5b8235905067ffffffffffffffff811115610d5057610d4f610d13565b5b602083019150836001820283011115610d6c57610d6b610d18565b5b9250929050565b60008060208385031215610d8a57610d89610b4c565b5b600083013567ffffffffffffffff811115610da857610da7610b51565b5b610db485828601610d1d565b92509250509250929050565b60006080820190508181036000830152610dda8187610c10565b90508181036020830152610dee8186610c10565b9050610dfd6040830185610c7b565b610e0a6060830184610ce4565b95945050505050565b60008060008060008060608789031215610e3057610e2f610b4c565b5b600087013567ffffffffffffffff811115610e4e57610e4d610b51565b5b610e5a89828a01610d1d565b9650965050602087013567ffffffffffffffff811115610e7d57610e7c610b51565b5b610e8989828a01610d1d565b9450945050604087013567ffffffffffffffff811115610eac57610eab610b51565b5b610eb889828a01610d1d565b92509250509295509295509295565b600080fd5b7f4e487b7100000000000000000000000000000000000000000000000000000000600052604160045260246000fd5b610f0482610bff565b810181811067ffffffffffffffff82111715610f2357610f22610ecc565b5b80604052505050565b6000610f36610b42565b9050610f428282610efb565b919050565b600067ffffffffffffffff821115610f6257610f61610ecc565b5b610f6b82610bff565b9050602081019050919050565b82818337600083830152505050565b6000610f9a610f9584610f47565b610f2c565b905082815260208101848484011115610fb657610fb5610ec7565b5b610fc1848285610f78565b509392505050565b600082601f830112610fde57610fdd610d0e565b5b8135610fee848260208601610f87565b91505092915050565b60006020828403121561100d5761100c610b4c565b5b600082013567ffffffffffffffff81111561102b5761102a610b51565b5b61103784828501610fc9565b91505092915050565b60008115159050919050565b61105581611040565b82525050565b6000602082019050611070600083018461104c565b92915050565b7f496e76616c6964206d6f64496400000000000000000000000000000000000000600082015250565b60006110ac600d83610bc4565b91506110b782611076565b602082019050919050565b600060208201905081810360008301526110db8161109f565b9050919050565b7f4e487b7100000000000000000000000000000000000000000000000000000000600052603260045260246000fd5b7f4e487b7100000000000000000000000000000000000000000000000000000000600052602260045260246000fd5b6000600282049050600182168061115857607f821691505b60208210810361116b5761116a611111565b5b50919050565b600081905092915050565b60006111888385611171565b9350611195838584610f78565b82840190509392505050565b60006111ae82848661117c565b91508190509392505050565b60008190508160005260206000209050919050565b600081546111dc81611140565b6111e68186611171565b94506001821660008114611201576001811461121657611249565b60ff1983168652811515820286019350611249565b61121f856111ba565b60005b8381101561124157815481890152600182019150602081019050611222565b838801955050505b50505092915050565b600061125e82846111cf565b915081905092915050565b7f4d6f64206e6f7420666f756e6400000000000000000000000000000000000000600082015250565b600061129f600d83610bc4565b91506112aa82611269565b602082019050919050565b600060208201905081810360008301526112ce81611292565b9050919050565b600081905092915050565b60006112ec83856112d5565b93506112f9838584610f78565b82840190509392505050565b60006113128284866112e0565b91508190509392505050565b7f4d6f6420616c7265616479207265676973746572656400000000000000000000600082015250565b6000611354601683610bc4565b915061135f8261131e565b602082019050919050565b6000602082019050818103600083015261138381611347565b9050919050565b60008190508160005260206000209050919050565b60006020601f8301049050919050565b600082821b905092915050565b6000600883026113ec7fffffffffffffffffffffffffffffffffffffffffffffffffffffffffffffffff826113af565b6113f686836113af565b95508019841693508086168417925050509392505050565b6000819050919050565b600061143361142e61142984610b56565b61140e565b610b56565b9050919050565b6000819050919050565b61144d83611418565b6114616114598261143a565b8484546113bc565b825550505050565b600090565b611476611469565b611481818484611444565b505050565b5b818110156114a55761149a60008261146e565b600181019050611487565b5050565b601f8211156114ea576114bb8161138a565b6114c48461139f565b810160208510156114d3578190505b6114e76114df8561139f565b830182611486565b50505b505050565b600082821c905092915050565b600061150d600019846008026114ef565b1980831691505092915050565b600061152683836114fc565b9150826002028217905092915050565b61153f82610bb9565b67ffffffffffffffff81111561155857611557610ecc565b5b6115628254611140565b61156d8282856114a9565b600060209050601f8311600181146115a0576000841561158e578287015190505b611598858261151a565b865550611600565b601f1984166115ae8661138a565b60005b828110156115d6578489015182556001820191506020850194506020810190506115b1565b868310156115f357848901516115ef601f8916826114fc565b8355505b6001600288020188555050505b505050505050565b7f4e487b7100000000000000000000000000000000000000000000000000000000600052601160045260246000fd5b600061164282610b56565b915061164d83610b56565b925082820390508181111561166557611664611608565b5b92915050565b60006116778385610bc4565b9350611684838584610f78565b61168d83610bff565b840190509392505050565b600060608201905081810360008301526116b381888a61166b565b905081810360208301526116c881868861166b565b905081810360408301526116dd81848661166b565b905097965050505050505056fea2646970667358221220863834e85707b317a1ab76127c6ca7b3a7c394a38fbfea6baff1f1515e09f64564736f6c634300081c0033",
  "linkReferences": {},
  "deployedLinkReferences": {}
}